{
  "contracts/IFALCSUSDFProxyPriceAdapter.sol": {
    "IFALCSUSDFProxyPriceAdapter": {
      "abi": [
        {
          "inputs": [
            {
              "internalType": "address",
              "name": "_proxy",
              "type": "address"
            }
          ],
          "stateMutability": "nonpayable",
          "type": "constructor"
        },
        {
          "inputs": [],
          "name": "decimals",
          "outputs": [
            {
              "internalType": "uint8",
              "name": "",
              "type": "uint8"
            }
          ],
          "stateMutability": "pure",
          "type": "function"
        },
        {
          "inputs": [],
          "name": "description",
          "outputs": [
            {
              "internalType": "string",
              "name": "",
              "type": "string"
            }
          ],
          "stateMutability": "pure",
          "type": "function"
        },
        {
          "inputs": [],
          "name": "latestRoundData",
          "outputs": [
            {
              "internalType": "uint80",
              "name": "roundId",
              "type": "uint80"
            },
            {
              "internalType": "int256",
              "name": "answer",
              "type": "int256"
            },
            {
              "internalType": "uint256",
              "name": "startedAt",
              "type": "uint256"
            },
            {
              "internalType": "uint256",
              "name": "updatedAt",
              "type": "uint256"
            },
            {
              "internalType": "uint80",
              "name": "answeredInRound",
              "type": "uint80"
            }
          ],
          "stateMutability": "view",
          "type": "function"
        },
        {
          "inputs": [],
          "name": "proxy",
          "outputs": [
            {
              "internalType": "contract IProxy",
              "name": "",
              "type": "address"
            }
          ],
          "stateMutability": "view",
          "type": "function"
        }
      ],
      "devdoc": {
        "kind": "dev",
        "methods": {},
        "version": 1
      },
      "evm": {
        "bytecode": {
          "linkReferences": {},
          "object": "60a060405234801561001057600080fd5b506040516104c33803806104c383398101604081905261002f91610040565b6001600160a01b0316608052610070565b60006020828403121561005257600080fd5b81516001600160a01b038116811461006957600080fd5b9392505050565b60805161042b6100986000396000818160a90152818161012d015261015c015261042b6000f3fe608060405234801561001057600080fd5b506004361061004c5760003560e01c8063313ce567146100515780637284e41614610065578063ec556889146100a4578063feaf968c146100e3575b600080fd5b604051601281526020015b60405180910390f35b604080518082018252601e81527f6946414c432f73555344662070726f7879207072696365206f7261636c6500006020820152905161005c9190610259565b6100cb7f000000000000000000000000000000000000000000000000000000000000000081565b6040516001600160a01b03909116815260200161005c565b6100eb610122565b6040805169ffffffffffffffffffff968716815260208101959095528401929092526060830152909116608082015260a00161005c565b6000806000806000807f00000000000000000000000000000000000000000000000000000000000000006001600160a01b03166307a2d13a7f00000000000000000000000000000000000000000000000000000000000000006001600160a01b031663313ce5676040518163ffffffff1660e01b8152600401602060405180830381865afa1580156101b8573d6000803e3d6000fd5b505050506040513d601f19601f820116820180604052508101906101dc91906102a7565b6101e790600a6103cd565b6040518263ffffffff1660e01b815260040161020591815260200190565b602060405180830381865afa158015610222573d6000803e3d6000fd5b505050506040513d601f19601f8201168201806040525081019061024691906103dc565b9096909550600094508493508392509050565b600060208083528351808285015260005b818110156102865785810183015185820160400152820161026a565b506000604082860101526040601f19601f8301168501019250505092915050565b6000602082840312156102b957600080fd5b815160ff811681146102ca57600080fd5b9392505050565b634e487b7160e01b600052601160045260246000fd5b600181815b80851115610322578160001904821115610308576103086102d1565b8085161561031557918102915b93841c93908002906102ec565b509250929050565b600082610339575060016103c7565b81610346575060006103c7565b816001811461035c576002811461036657610382565b60019150506103c7565b60ff841115610377576103776102d1565b50506001821b6103c7565b5060208310610133831016604e8410600b84101617156103a5575081810a6103c7565b6103af83836102e7565b80600019048211156103c3576103c36102d1565b0290505b92915050565b60006102ca60ff84168361032a565b6000602082840312156103ee57600080fd5b505191905056fea264697066735822122052c9a093070cfbe2af36fb817e373fb83a330f75b3955d3f6796da9b32651c7364736f6c63430008140033",
          "opcodes": "PUSH1 0xA0 PUSH1 0x40 MSTORE CALLVALUE DUP1 ISZERO PUSH2 0x10 JUMPI PUSH1 0x0 DUP1 REVERT JUMPDEST POP PUSH1 0x40 MLOAD PUSH2 0x4C3 CODESIZE SUB DUP1 PUSH2 0x4C3 DUP4 CODECOPY DUP2 ADD PUSH1 0x40 DUP2 SWAP1 MSTORE PUSH2 0x2F SWAP2 PUSH2 0x40 JUMP JUMPDEST PUSH1 0x1 PUSH1 0x1 PUSH1 0xA0 SHL SUB AND PUSH1 0x80 MSTORE PUSH2 0x70 JUMP JUMPDEST PUSH1 0x0 PUSH1 0x20 DUP3 DUP5 SUB SLT ISZERO PUSH2 0x52 JUMPI PUSH1 0x0 DUP1 REVERT JUMPDEST DUP2 MLOAD PUSH1 0x1 PUSH1 0x1 PUSH1 0xA0 SHL SUB DUP2 AND DUP2 EQ PUSH2 0x69 JUMPI PUSH1 0x0 DUP1 REVERT JUMPDEST SWAP4 SWAP3 POP POP POP JUMP JUMPDEST PUSH1 0x80 MLOAD PUSH2 0x42B PUSH2 0x98 PUSH1 0x0 CODECOPY PUSH1 0x0 DUP2 DUP2 PUSH1 0xA9 ADD MSTORE DUP2 DUP2 PUSH2 0x12D ADD MSTORE PUSH2 0x15C ADD MSTORE PUSH2 0x42B PUSH1 0x0 RETURN INVALID PUSH1 0x80 PUSH1 0x40 MSTORE CALLVALUE DUP1 ISZERO PUSH2 0x10 JUMPI PUSH1 0x0 DUP1 REVERT JUMPDEST POP PUSH1 0x4 CALLDATASIZE LT PUSH2 0x4C JUMPI PUSH1 0x0 CALLDATALOAD PUSH1 0xE0 SHR DUP1 PUSH4 0x313CE567 EQ PUSH2 0x51 JUMPI DUP1 PUSH4 0x7284E416 EQ PUSH2 0x65 JUMPI DUP1 PUSH4 0xEC556889 EQ PUSH2 0xA4 JUMPI DUP1 PUSH4 0xFEAF968C EQ PUSH2 0xE3 JUMPI JUMPDEST PUSH1 0x0 DUP1 REVERT JUMPDEST PUSH1 0x40 MLOAD PUSH1 0x12 DUP2 MSTORE PUSH1 0x20 ADD JUMPDEST PUSH1 0x40 MLOAD DUP1 SWAP2 SUB SWAP1 RETURN JUMPDEST PUSH1 0x40 DUP1 MLOAD DUP1 DUP3 ADD DUP3 MSTORE PUSH1 0x1E DUP2 MSTORE PUSH32 0x6946414C432F73555344662070726F7879207072696365206F7261636C650000 PUSH1 0x20 DUP3 ADD MSTORE SWAP1 MLOAD PUSH2 0x5C SWAP2 SWAP1 PUSH2 0x259 JUMP JUMPDEST PUSH2 0xCB PUSH32 0x0 DUP2 JUMP JUMPDEST PUSH1 0x40 MLOAD PUSH1 0x1 PUSH1 0x1 PUSH1 0xA0 SHL SUB SWAP1 SWAP2 AND DUP2 MSTORE PUSH1 0x20 ADD PUSH2 0x5C JUMP JUMPDEST PUSH2 0xEB PUSH2 0x122 JUMP JUMPDEST PUSH1 0x40 DUP1 MLOAD PUSH10 0xFFFFFFFFFFFFFFFFFFFF SWAP7 DUP8 AND DUP2 MSTORE PUSH1 0x20 DUP2 ADD SWAP6 SWAP1 SWAP6 MSTORE DUP5 ADD SWAP3 SWAP1 SWAP3 MSTORE PUSH1 0x60 DUP4 ADD MSTORE SWAP1 SWAP2 AND PUSH1 0x80 DUP3 ADD MSTORE PUSH1 0xA0 ADD PUSH2 0x5C JUMP JUMPDEST PUSH1 0x0 DUP1 PUSH1 0x0 DUP1 PUSH1 0x0 DUP1 PUSH32 0x0 PUSH1 0x1 PUSH1 0x1 PUSH1 0xA0 SHL SUB AND PUSH4 0x7A2D13A PUSH32 0x0 PUSH1 0x1 PUSH1 0x1 PUSH1 0xA0 SHL SUB AND PUSH4 0x313CE567 PUSH1 0x40 MLOAD DUP2 PUSH4 0xFFFFFFFF AND PUSH1 0xE0 SHL DUP2 MSTORE PUSH1 0x4 ADD PUSH1 0x20 PUSH1 0x40 MLOAD DUP1 DUP4 SUB DUP2 DUP7 GAS STATICCALL ISZERO DUP1 ISZERO PUSH2 0x1B8 JUMPI RETURNDATASIZE PUSH1 0x0 DUP1 RETURNDATACOPY RETURNDATASIZE PUSH1 0x0 REVERT JUMPDEST POP POP POP POP PUSH1 0x40 MLOAD RETURNDATASIZE PUSH1 0x1F NOT PUSH1 0x1F DUP3 ADD AND DUP3 ADD DUP1 PUSH1 0x40 MSTORE POP DUP2 ADD SWAP1 PUSH2 0x1DC SWAP2 SWAP1 PUSH2 0x2A7 JUMP JUMPDEST PUSH2 0x1E7 SWAP1 PUSH1 0xA PUSH2 0x3CD JUMP JUMPDEST PUSH1 0x40 MLOAD DUP3 PUSH4 0xFFFFFFFF AND PUSH1 0xE0 SHL DUP2 MSTORE PUSH1 0x4 ADD PUSH2 0x205 SWAP2 DUP2 MSTORE PUSH1 0x20 ADD SWAP1 JUMP JUMPDEST PUSH1 0x20 PUSH1 0x40 MLOAD DUP1 DUP4 SUB DUP2 DUP7 GAS STATICCALL ISZERO DUP1 ISZERO PUSH2 0x222 JUMPI RETURNDATASIZE PUSH1 0x0 DUP1 RETURNDATACOPY RETURNDATASIZE PUSH1 0x0 REVERT JUMPDEST POP POP POP POP PUSH1 0x40 MLOAD RETURNDATASIZE PUSH1 0x1F NOT PUSH1 0x1F DUP3 ADD AND DUP3 ADD DUP1 PUSH1 0x40 MSTORE POP DUP2 ADD SWAP1 PUSH2 0x246 SWAP2 SWAP1 PUSH2 0x3DC JUMP JUMPDEST SWAP1 SWAP7 SWAP1 SWAP6 POP PUSH1 0x0 SWAP5 POP DUP5 SWAP4 POP DUP4 SWAP3 POP SWAP1 POP JUMP JUMPDEST PUSH1 0x0 PUSH1 0x20 DUP1 DUP4 MSTORE DUP4 MLOAD DUP1 DUP3 DUP6 ADD MSTORE PUSH1 0x0 JUMPDEST DUP2 DUP2 LT ISZERO PUSH2 0x286 JUMPI DUP6 DUP2 ADD DUP4 ADD MLOAD DUP6 DUP3 ADD PUSH1 0x40 ADD MSTORE DUP3 ADD PUSH2 0x26A JUMP JUMPDEST POP PUSH1 0x0 PUSH1 0x40 DUP3 DUP7 ADD ADD MSTORE PUSH1 0x40 PUSH1 0x1F NOT PUSH1 0x1F DUP4 ADD AND DUP6 ADD ADD SWAP3 POP POP POP SWAP3 SWAP2 POP POP JUMP JUMPDEST PUSH1 0x0 PUSH1 0x20 DUP3 DUP5 SUB SLT ISZERO PUSH2 0x2B9 JUMPI PUSH1 0x0 DUP1 REVERT JUMPDEST DUP2 MLOAD PUSH1 0xFF DUP2 AND DUP2 EQ PUSH2 0x2CA JUMPI PUSH1 0x0 DUP1 REVERT JUMPDEST SWAP4 SWAP3 POP POP POP JUMP JUMPDEST PUSH4 0x4E487B71 PUSH1 0xE0 SHL PUSH1 0x0 MSTORE PUSH1 0x11 PUSH1 0x4 MSTORE PUSH1 0x24 PUSH1 0x0 REVERT JUMPDEST PUSH1 0x1 DUP2 DUP2 JUMPDEST DUP1 DUP6 GT ISZERO PUSH2 0x322 JUMPI DUP2 PUSH1 0x0 NOT DIV DUP3 GT ISZERO PUSH2 0x308 JUMPI PUSH2 0x308 PUSH2 0x2D1 JUMP JUMPDEST DUP1 DUP6 AND ISZERO PUSH2 0x315 JUMPI SWAP2 DUP2 MUL SWAP2 JUMPDEST SWAP4 DUP5 SHR SWAP4 SWAP1 DUP1 MUL SWAP1 PUSH2 0x2EC JUMP JUMPDEST POP SWAP3 POP SWAP3 SWAP1 POP JUMP JUMPDEST PUSH1 0x0 DUP3 PUSH2 0x339 JUMPI POP PUSH1 0x1 PUSH2 0x3C7 JUMP JUMPDEST DUP2 PUSH2 0x346 JUMPI POP PUSH1 0x0 PUSH2 0x3C7 JUMP JUMPDEST DUP2 PUSH1 0x1 DUP2 EQ PUSH2 0x35C JUMPI PUSH1 0x2 DUP2 EQ PUSH2 0x366 JUMPI PUSH2 0x382 JUMP JUMPDEST PUSH1 0x1 SWAP2 POP POP PUSH2 0x3C7 JUMP JUMPDEST PUSH1 0xFF DUP5 GT ISZERO PUSH2 0x377 JUMPI PUSH2 0x377 PUSH2 0x2D1 JUMP JUMPDEST POP POP PUSH1 0x1 DUP3 SHL PUSH2 0x3C7 JUMP JUMPDEST POP PUSH1 0x20 DUP4 LT PUSH2 0x133 DUP4 LT AND PUSH1 0x4E DUP5 LT PUSH1 0xB DUP5 LT AND OR ISZERO PUSH2 0x3A5 JUMPI POP DUP2 DUP2 EXP PUSH2 0x3C7 JUMP JUMPDEST PUSH2 0x3AF DUP4 DUP4 PUSH2 0x2E7 JUMP JUMPDEST DUP1 PUSH1 0x0 NOT DIV DUP3 GT ISZERO PUSH2 0x3C3 JUMPI PUSH2 0x3C3 PUSH2 0x2D1 JUMP JUMPDEST MUL SWAP1 POP JUMPDEST SWAP3 SWAP2 POP POP JUMP JUMPDEST PUSH1 0x0 PUSH2 0x2CA PUSH1 0xFF DUP5 AND DUP4 PUSH2 0x32A JUMP JUMPDEST PUSH1 0x0 PUSH1 0x20 DUP3 DUP5 SUB SLT ISZERO PUSH2 0x3EE JUMPI PUSH1 0x0 DUP1 REVERT JUMPDEST POP MLOAD SWAP2 SWAP1 POP JUMP INVALID LOG2 PUSH5 0x6970667358 0x22 SLT KECCAK256 MSTORE 0xC9 LOG0 SWAP4 SMOD 0xC 0xFB 0xE2 0xAF CALLDATASIZE 0xFB DUP2 PUSH31 0x373FB83A330F75B3955D3F6796DA9B32651C7364736F6C6343000814003300 "
        },
        "gasEstimates": {
          "creation": {
            "codeDepositCost": "213400",
            "executionCost": "infinite",
            "totalCost": "infinite"
          },
          "external": {
            "decimals()": "144",
            "description()": "infinite",
            "latestRoundData()": "infinite",
            "proxy()": "infinite"
          }
        },
        "methodIdentifiers": {
          "decimals()": "313ce567",
          "description()": "7284e416",
          "latestRoundData()": "feaf968c",
          "proxy()": "ec556889"
        }
      },
      "storageLayout": {
        "storage": [],
        "types": null
      },
      "userdoc": {
        "kind": "user",
        "methods": {},
        "version": 1
      }
    }
  }
}