{
  "contracts/IFALCUSDCProxyPriceAdapter.sol": {
    "IFALCUSDCProxyPriceAdapter": {
      "abi": [
        {
          "inputs": [
            {
              "internalType": "address",
              "name": "_proxy",
              "type": "address"
            }
          ],
          "stateMutability": "nonpayable",
          "type": "constructor"
        },
        {
          "inputs": [],
          "name": "decimals",
          "outputs": [
            {
              "internalType": "uint8",
              "name": "",
              "type": "uint8"
            }
          ],
          "stateMutability": "view",
          "type": "function"
        },
        {
          "inputs": [],
          "name": "description",
          "outputs": [
            {
              "internalType": "string",
              "name": "",
              "type": "string"
            }
          ],
          "stateMutability": "pure",
          "type": "function"
        },
        {
          "inputs": [],
          "name": "latestRoundData",
          "outputs": [
            {
              "internalType": "uint80",
              "name": "roundId",
              "type": "uint80"
            },
            {
              "internalType": "int256",
              "name": "answer",
              "type": "int256"
            },
            {
              "internalType": "uint256",
              "name": "startedAt",
              "type": "uint256"
            },
            {
              "internalType": "uint256",
              "name": "updatedAt",
              "type": "uint256"
            },
            {
              "internalType": "uint80",
              "name": "answeredInRound",
              "type": "uint80"
            }
          ],
          "stateMutability": "view",
          "type": "function"
        },
        {
          "inputs": [],
          "name": "proxy",
          "outputs": [
            {
              "internalType": "contract IProxy",
              "name": "",
              "type": "address"
            }
          ],
          "stateMutability": "view",
          "type": "function"
        }
      ],
      "devdoc": {
        "kind": "dev",
        "methods": {},
        "version": 1
      },
      "evm": {
        "bytecode": {
          "linkReferences": {},
          "object": "60a060405234801561001057600080fd5b5060405161055e38038061055e83398101604081905261002f91610040565b6001600160a01b0316608052610070565b60006020828403121561005257600080fd5b81516001600160a01b038116811461006957600080fd5b9392505050565b6080516104bf61009f6000396000818160b401528181610131015281816101c101526101f001526104bf6000f3fe608060405234801561001057600080fd5b506004361061004c5760003560e01c8063313ce567146100515780637284e41614610070578063ec556889146100af578063feaf968c146100ee575b600080fd5b61005961012d565b60405160ff90911681526020015b60405180910390f35b604080518082018252601d81527f6946414c432f555344432070726f7879207072696365206f7261636c650000006020820152905161006791906102ed565b6100d67f000000000000000000000000000000000000000000000000000000000000000081565b6040516001600160a01b039091168152602001610067565b6100f66101b6565b6040805169ffffffffffffffffffff968716815260208101959095528401929092526060830152909116608082015260a001610067565b60007f00000000000000000000000000000000000000000000000000000000000000006001600160a01b031663313ce5676040518163ffffffff1660e01b8152600401602060405180830381865afa15801561018d573d6000803e3d6000fd5b505050506040513d601f19601f820116820180604052508101906101b1919061033b565b905090565b6000806000806000807f00000000000000000000000000000000000000000000000000000000000000006001600160a01b03166307a2d13a7f00000000000000000000000000000000000000000000000000000000000000006001600160a01b031663313ce5676040518163ffffffff1660e01b8152600401602060405180830381865afa15801561024c573d6000803e3d6000fd5b505050506040513d601f19601f82011682018060405250810190610270919061033b565b61027b90600a610461565b6040518263ffffffff1660e01b815260040161029991815260200190565b602060405180830381865afa1580156102b6573d6000803e3d6000fd5b505050506040513d601f19601f820116820180604052508101906102da9190610470565b9096909550600094508493508392509050565b600060208083528351808285015260005b8181101561031a578581018301518582016040015282016102fe565b506000604082860101526040601f19601f8301168501019250505092915050565b60006020828403121561034d57600080fd5b815160ff8116811461035e57600080fd5b9392505050565b634e487b7160e01b600052601160045260246000fd5b600181815b808511156103b657816000190482111561039c5761039c610365565b808516156103a957918102915b93841c9390800290610380565b509250929050565b6000826103cd5750600161045b565b816103da5750600061045b565b81600181146103f057600281146103fa57610416565b600191505061045b565b60ff84111561040b5761040b610365565b50506001821b61045b565b5060208310610133831016604e8410600b8410161715610439575081810a61045b565b610443838361037b565b806000190482111561045757610457610365565b0290505b92915050565b600061035e60ff8416836103be565b60006020828403121561048257600080fd5b505191905056fea2646970667358221220348cabed9c5c5244eb21c2f94147e39d637433342797440621fa32fd40eaa2c964736f6c63430008140033",
          "opcodes": "PUSH1 0xA0 PUSH1 0x40 MSTORE CALLVALUE DUP1 ISZERO PUSH2 0x10 JUMPI PUSH1 0x0 DUP1 REVERT JUMPDEST POP PUSH1 0x40 MLOAD PUSH2 0x55E CODESIZE SUB DUP1 PUSH2 0x55E DUP4 CODECOPY DUP2 ADD PUSH1 0x40 DUP2 SWAP1 MSTORE PUSH2 0x2F SWAP2 PUSH2 0x40 JUMP JUMPDEST PUSH1 0x1 PUSH1 0x1 PUSH1 0xA0 SHL SUB AND PUSH1 0x80 MSTORE PUSH2 0x70 JUMP JUMPDEST PUSH1 0x0 PUSH1 0x20 DUP3 DUP5 SUB SLT ISZERO PUSH2 0x52 JUMPI PUSH1 0x0 DUP1 REVERT JUMPDEST DUP2 MLOAD PUSH1 0x1 PUSH1 0x1 PUSH1 0xA0 SHL SUB DUP2 AND DUP2 EQ PUSH2 0x69 JUMPI PUSH1 0x0 DUP1 REVERT JUMPDEST SWAP4 SWAP3 POP POP POP JUMP JUMPDEST PUSH1 0x80 MLOAD PUSH2 0x4BF PUSH2 0x9F PUSH1 0x0 CODECOPY PUSH1 0x0 DUP2 DUP2 PUSH1 0xB4 ADD MSTORE DUP2 DUP2 PUSH2 0x131 ADD MSTORE DUP2 DUP2 PUSH2 0x1C1 ADD MSTORE PUSH2 0x1F0 ADD MSTORE PUSH2 0x4BF PUSH1 0x0 RETURN INVALID PUSH1 0x80 PUSH1 0x40 MSTORE CALLVALUE DUP1 ISZERO PUSH2 0x10 JUMPI PUSH1 0x0 DUP1 REVERT JUMPDEST POP PUSH1 0x4 CALLDATASIZE LT PUSH2 0x4C JUMPI PUSH1 0x0 CALLDATALOAD PUSH1 0xE0 SHR DUP1 PUSH4 0x313CE567 EQ PUSH2 0x51 JUMPI DUP1 PUSH4 0x7284E416 EQ PUSH2 0x70 JUMPI DUP1 PUSH4 0xEC556889 EQ PUSH2 0xAF JUMPI DUP1 PUSH4 0xFEAF968C EQ PUSH2 0xEE JUMPI JUMPDEST PUSH1 0x0 DUP1 REVERT JUMPDEST PUSH2 0x59 PUSH2 0x12D JUMP JUMPDEST PUSH1 0x40 MLOAD PUSH1 0xFF SWAP1 SWAP2 AND DUP2 MSTORE PUSH1 0x20 ADD JUMPDEST PUSH1 0x40 MLOAD DUP1 SWAP2 SUB SWAP1 RETURN JUMPDEST PUSH1 0x40 DUP1 MLOAD DUP1 DUP3 ADD DUP3 MSTORE PUSH1 0x1D DUP2 MSTORE PUSH32 0x6946414C432F555344432070726F7879207072696365206F7261636C65000000 PUSH1 0x20 DUP3 ADD MSTORE SWAP1 MLOAD PUSH2 0x67 SWAP2 SWAP1 PUSH2 0x2ED JUMP JUMPDEST PUSH2 0xD6 PUSH32 0x0 DUP2 JUMP JUMPDEST PUSH1 0x40 MLOAD PUSH1 0x1 PUSH1 0x1 PUSH1 0xA0 SHL SUB SWAP1 SWAP2 AND DUP2 MSTORE PUSH1 0x20 ADD PUSH2 0x67 JUMP JUMPDEST PUSH2 0xF6 PUSH2 0x1B6 JUMP JUMPDEST PUSH1 0x40 DUP1 MLOAD PUSH10 0xFFFFFFFFFFFFFFFFFFFF SWAP7 DUP8 AND DUP2 MSTORE PUSH1 0x20 DUP2 ADD SWAP6 SWAP1 SWAP6 MSTORE DUP5 ADD SWAP3 SWAP1 SWAP3 MSTORE PUSH1 0x60 DUP4 ADD MSTORE SWAP1 SWAP2 AND PUSH1 0x80 DUP3 ADD MSTORE PUSH1 0xA0 ADD PUSH2 0x67 JUMP JUMPDEST PUSH1 0x0 PUSH32 0x0 PUSH1 0x1 PUSH1 0x1 PUSH1 0xA0 SHL SUB AND PUSH4 0x313CE567 PUSH1 0x40 MLOAD DUP2 PUSH4 0xFFFFFFFF AND PUSH1 0xE0 SHL DUP2 MSTORE PUSH1 0x4 ADD PUSH1 0x20 PUSH1 0x40 MLOAD DUP1 DUP4 SUB DUP2 DUP7 GAS STATICCALL ISZERO DUP1 ISZERO PUSH2 0x18D JUMPI RETURNDATASIZE PUSH1 0x0 DUP1 RETURNDATACOPY RETURNDATASIZE PUSH1 0x0 REVERT JUMPDEST POP POP POP POP PUSH1 0x40 MLOAD RETURNDATASIZE PUSH1 0x1F NOT PUSH1 0x1F DUP3 ADD AND DUP3 ADD DUP1 PUSH1 0x40 MSTORE POP DUP2 ADD SWAP1 PUSH2 0x1B1 SWAP2 SWAP1 PUSH2 0x33B JUMP JUMPDEST SWAP1 POP SWAP1 JUMP JUMPDEST PUSH1 0x0 DUP1 PUSH1 0x0 DUP1 PUSH1 0x0 DUP1 PUSH32 0x0 PUSH1 0x1 PUSH1 0x1 PUSH1 0xA0 SHL SUB AND PUSH4 0x7A2D13A PUSH32 0x0 PUSH1 0x1 PUSH1 0x1 PUSH1 0xA0 SHL SUB AND PUSH4 0x313CE567 PUSH1 0x40 MLOAD DUP2 PUSH4 0xFFFFFFFF AND PUSH1 0xE0 SHL DUP2 MSTORE PUSH1 0x4 ADD PUSH1 0x20 PUSH1 0x40 MLOAD DUP1 DUP4 SUB DUP2 DUP7 GAS STATICCALL ISZERO DUP1 ISZERO PUSH2 0x24C JUMPI RETURNDATASIZE PUSH1 0x0 DUP1 RETURNDATACOPY RETURNDATASIZE PUSH1 0x0 REVERT JUMPDEST POP POP POP POP PUSH1 0x40 MLOAD RETURNDATASIZE PUSH1 0x1F NOT PUSH1 0x1F DUP3 ADD AND DUP3 ADD DUP1 PUSH1 0x40 MSTORE POP DUP2 ADD SWAP1 PUSH2 0x270 SWAP2 SWAP1 PUSH2 0x33B JUMP JUMPDEST PUSH2 0x27B SWAP1 PUSH1 0xA PUSH2 0x461 JUMP JUMPDEST PUSH1 0x40 MLOAD DUP3 PUSH4 0xFFFFFFFF AND PUSH1 0xE0 SHL DUP2 MSTORE PUSH1 0x4 ADD PUSH2 0x299 SWAP2 DUP2 MSTORE PUSH1 0x20 ADD SWAP1 JUMP JUMPDEST PUSH1 0x20 PUSH1 0x40 MLOAD DUP1 DUP4 SUB DUP2 DUP7 GAS STATICCALL ISZERO DUP1 ISZERO PUSH2 0x2B6 JUMPI RETURNDATASIZE PUSH1 0x0 DUP1 RETURNDATACOPY RETURNDATASIZE PUSH1 0x0 REVERT JUMPDEST POP POP POP POP PUSH1 0x40 MLOAD RETURNDATASIZE PUSH1 0x1F NOT PUSH1 0x1F DUP3 ADD AND DUP3 ADD DUP1 PUSH1 0x40 MSTORE POP DUP2 ADD SWAP1 PUSH2 0x2DA SWAP2 SWAP1 PUSH2 0x470 JUMP JUMPDEST SWAP1 SWAP7 SWAP1 SWAP6 POP PUSH1 0x0 SWAP5 POP DUP5 SWAP4 POP DUP4 SWAP3 POP SWAP1 POP JUMP JUMPDEST PUSH1 0x0 PUSH1 0x20 DUP1 DUP4 MSTORE DUP4 MLOAD DUP1 DUP3 DUP6 ADD MSTORE PUSH1 0x0 JUMPDEST DUP2 DUP2 LT ISZERO PUSH2 0x31A JUMPI DUP6 DUP2 ADD DUP4 ADD MLOAD DUP6 DUP3 ADD PUSH1 0x40 ADD MSTORE DUP3 ADD PUSH2 0x2FE JUMP JUMPDEST POP PUSH1 0x0 PUSH1 0x40 DUP3 DUP7 ADD ADD MSTORE PUSH1 0x40 PUSH1 0x1F NOT PUSH1 0x1F DUP4 ADD AND DUP6 ADD ADD SWAP3 POP POP POP SWAP3 SWAP2 POP POP JUMP JUMPDEST PUSH1 0x0 PUSH1 0x20 DUP3 DUP5 SUB SLT ISZERO PUSH2 0x34D JUMPI PUSH1 0x0 DUP1 REVERT JUMPDEST DUP2 MLOAD PUSH1 0xFF DUP2 AND DUP2 EQ PUSH2 0x35E JUMPI PUSH1 0x0 DUP1 REVERT JUMPDEST SWAP4 SWAP3 POP POP POP JUMP JUMPDEST PUSH4 0x4E487B71 PUSH1 0xE0 SHL PUSH1 0x0 MSTORE PUSH1 0x11 PUSH1 0x4 MSTORE PUSH1 0x24 PUSH1 0x0 REVERT JUMPDEST PUSH1 0x1 DUP2 DUP2 JUMPDEST DUP1 DUP6 GT ISZERO PUSH2 0x3B6 JUMPI DUP2 PUSH1 0x0 NOT DIV DUP3 GT ISZERO PUSH2 0x39C JUMPI PUSH2 0x39C PUSH2 0x365 JUMP JUMPDEST DUP1 DUP6 AND ISZERO PUSH2 0x3A9 JUMPI SWAP2 DUP2 MUL SWAP2 JUMPDEST SWAP4 DUP5 SHR SWAP4 SWAP1 DUP1 MUL SWAP1 PUSH2 0x380 JUMP JUMPDEST POP SWAP3 POP SWAP3 SWAP1 POP JUMP JUMPDEST PUSH1 0x0 DUP3 PUSH2 0x3CD JUMPI POP PUSH1 0x1 PUSH2 0x45B JUMP JUMPDEST DUP2 PUSH2 0x3DA JUMPI POP PUSH1 0x0 PUSH2 0x45B JUMP JUMPDEST DUP2 PUSH1 0x1 DUP2 EQ PUSH2 0x3F0 JUMPI PUSH1 0x2 DUP2 EQ PUSH2 0x3FA JUMPI PUSH2 0x416 JUMP JUMPDEST PUSH1 0x1 SWAP2 POP POP PUSH2 0x45B JUMP JUMPDEST PUSH1 0xFF DUP5 GT ISZERO PUSH2 0x40B JUMPI PUSH2 0x40B PUSH2 0x365 JUMP JUMPDEST POP POP PUSH1 0x1 DUP3 SHL PUSH2 0x45B JUMP JUMPDEST POP PUSH1 0x20 DUP4 LT PUSH2 0x133 DUP4 LT AND PUSH1 0x4E DUP5 LT PUSH1 0xB DUP5 LT AND OR ISZERO PUSH2 0x439 JUMPI POP DUP2 DUP2 EXP PUSH2 0x45B JUMP JUMPDEST PUSH2 0x443 DUP4 DUP4 PUSH2 0x37B JUMP JUMPDEST DUP1 PUSH1 0x0 NOT DIV DUP3 GT ISZERO PUSH2 0x457 JUMPI PUSH2 0x457 PUSH2 0x365 JUMP JUMPDEST MUL SWAP1 POP JUMPDEST SWAP3 SWAP2 POP POP JUMP JUMPDEST PUSH1 0x0 PUSH2 0x35E PUSH1 0xFF DUP5 AND DUP4 PUSH2 0x3BE JUMP JUMPDEST PUSH1 0x0 PUSH1 0x20 DUP3 DUP5 SUB SLT ISZERO PUSH2 0x482 JUMPI PUSH1 0x0 DUP1 REVERT JUMPDEST POP MLOAD SWAP2 SWAP1 POP JUMP INVALID LOG2 PUSH5 0x6970667358 0x22 SLT KECCAK256 CALLVALUE DUP13 0xAB 0xED SWAP13 0x5C MSTORE PREVRANDAO 0xEB 0x21 0xC2 0xF9 COINBASE SELFBALANCE 0xE3 SWAP14 PUSH4 0x74333427 SWAP8 PREVRANDAO MOD 0x21 STATICCALL ORIGIN REVERT BLOCKHASH 0xEA LOG2 0xC9 PUSH5 0x736F6C6343 STOP ADDMOD EQ STOP CALLER "
        },
        "gasEstimates": {
          "creation": {
            "codeDepositCost": "243000",
            "executionCost": "infinite",
            "totalCost": "infinite"
          },
          "external": {
            "decimals()": "infinite",
            "description()": "infinite",
            "latestRoundData()": "infinite",
            "proxy()": "infinite"
          }
        },
        "methodIdentifiers": {
          "decimals()": "313ce567",
          "description()": "7284e416",
          "latestRoundData()": "feaf968c",
          "proxy()": "ec556889"
        }
      },
      "storageLayout": {
        "storage": [],
        "types": null
      },
      "userdoc": {
        "kind": "user",
        "methods": {},
        "version": 1
      }
    }
  }
}