{
  "_format": "hh-sol-artifact-1",
  "contractName": "IFALCSUSDFProxyPriceAdapter",
  "sourceName": "contracts/IFALCSUSDFProxyPriceAdapter.sol",
  "abi": [
    {
      "inputs": [
        {
          "internalType": "address",
          "name": "_proxy",
          "type": "address"
        }
      ],
      "stateMutability": "nonpayable",
      "type": "constructor"
    },
    {
      "inputs": [],
      "name": "decimals",
      "outputs": [
        {
          "internalType": "uint8",
          "name": "",
          "type": "uint8"
        }
      ],
      "stateMutability": "pure",
      "type": "function"
    },
    {
      "inputs": [],
      "name": "description",
      "outputs": [
        {
          "internalType": "string",
          "name": "",
          "type": "string"
        }
      ],
      "stateMutability": "pure",
      "type": "function"
    },
    {
      "inputs": [],
      "name": "latestRoundData",
      "outputs": [
        {
          "internalType": "uint80",
          "name": "roundId",
          "type": "uint80"
        },
        {
          "internalType": "int256",
          "name": "answer",
          "type": "int256"
        },
        {
          "internalType": "uint256",
          "name": "startedAt",
          "type": "uint256"
        },
        {
          "internalType": "uint256",
          "name": "updatedAt",
          "type": "uint256"
        },
        {
          "internalType": "uint80",
          "name": "answeredInRound",
          "type": "uint80"
        }
      ],
      "stateMutability": "view",
      "type": "function"
    },
    {
      "inputs": [],
      "name": "proxy",
      "outputs": [
        {
          "internalType": "contract IProxy",
          "name": "",
          "type": "address"
        }
      ],
      "stateMutability": "view",
      "type": "function"
    }
  ],
  "bytecode": "0x60a060405234801561001057600080fd5b506040516104c33803806104c383398101604081905261002f91610040565b6001600160a01b0316608052610070565b60006020828403121561005257600080fd5b81516001600160a01b038116811461006957600080fd5b9392505050565b60805161042b6100986000396000818160a90152818161012d015261015c015261042b6000f3fe608060405234801561001057600080fd5b506004361061004c5760003560e01c8063313ce567146100515780637284e41614610065578063ec556889146100a4578063feaf968c146100e3575b600080fd5b604051601281526020015b60405180910390f35b604080518082018252601e81527f6946414c432f73555344662070726f7879207072696365206f7261636c6500006020820152905161005c9190610259565b6100cb7f000000000000000000000000000000000000000000000000000000000000000081565b6040516001600160a01b03909116815260200161005c565b6100eb610122565b6040805169ffffffffffffffffffff968716815260208101959095528401929092526060830152909116608082015260a00161005c565b6000806000806000807f00000000000000000000000000000000000000000000000000000000000000006001600160a01b03166307a2d13a7f00000000000000000000000000000000000000000000000000000000000000006001600160a01b031663313ce5676040518163ffffffff1660e01b8152600401602060405180830381865afa1580156101b8573d6000803e3d6000fd5b505050506040513d601f19601f820116820180604052508101906101dc91906102a7565b6101e790600a6103cd565b6040518263ffffffff1660e01b815260040161020591815260200190565b602060405180830381865afa158015610222573d6000803e3d6000fd5b505050506040513d601f19601f8201168201806040525081019061024691906103dc565b9096909550600094508493508392509050565b600060208083528351808285015260005b818110156102865785810183015185820160400152820161026a565b506000604082860101526040601f19601f8301168501019250505092915050565b6000602082840312156102b957600080fd5b815160ff811681146102ca57600080fd5b9392505050565b634e487b7160e01b600052601160045260246000fd5b600181815b80851115610322578160001904821115610308576103086102d1565b8085161561031557918102915b93841c93908002906102ec565b509250929050565b600082610339575060016103c7565b81610346575060006103c7565b816001811461035c576002811461036657610382565b60019150506103c7565b60ff841115610377576103776102d1565b50506001821b6103c7565b5060208310610133831016604e8410600b84101617156103a5575081810a6103c7565b6103af83836102e7565b80600019048211156103c3576103c36102d1565b0290505b92915050565b60006102ca60ff84168361032a565b6000602082840312156103ee57600080fd5b505191905056fea264697066735822122052c9a093070cfbe2af36fb817e373fb83a330f75b3955d3f6796da9b32651c7364736f6c63430008140033",
  "linkReferences": {},
  "deployedLinkReferences": {}
}